{
  "contractName": "Battles",
  "abi": [
    {
      "inputs": [
        {
          "internalType": "address",
          "name": "_dungeonsAndDragonsContract",
          "type": "address"
        }
      ],
      "stateMutability": "nonpayable",
      "type": "constructor"
    },
    {
      "anonymous": false,
      "inputs": [
        {
          "indexed": true,
          "internalType": "bytes32",
          "name": "id",
          "type": "bytes32"
        }
      ],
      "name": "ChainlinkCancelled",
      "type": "event"
    },
    {
      "anonymous": false,
      "inputs": [
        {
          "indexed": true,
          "internalType": "bytes32",
          "name": "id",
          "type": "bytes32"
        }
      ],
      "name": "ChainlinkFulfilled",
      "type": "event"
    },
    {
      "anonymous": false,
      "inputs": [
        {
          "indexed": true,
          "internalType": "bytes32",
          "name": "id",
          "type": "bytes32"
        }
      ],
      "name": "ChainlinkRequested",
      "type": "event"
    },
    {
      "anonymous": false,
      "inputs": [
        {
          "indexed": true,
          "internalType": "address",
          "name": "previousOwner",
          "type": "address"
        },
        {
          "indexed": true,
          "internalType": "address",
          "name": "newOwner",
          "type": "address"
        }
      ],
      "name": "OwnershipTransferred",
      "type": "event"
    },
    {
      "inputs": [],
      "name": "dungeonsAndDragonsContract",
      "outputs": [
        {
          "internalType": "address",
          "name": "",
          "type": "address"
        }
      ],
      "stateMutability": "view",
      "type": "function",
      "constant": true
    },
    {
      "inputs": [],
      "name": "owner",
      "outputs": [
        {
          "internalType": "address",
          "name": "",
          "type": "address"
        }
      ],
      "stateMutability": "view",
      "type": "function",
      "constant": true
    },
    {
      "inputs": [],
      "name": "renounceOwnership",
      "outputs": [],
      "stateMutability": "nonpayable",
      "type": "function"
    },
    {
      "inputs": [
        {
          "internalType": "address",
          "name": "newOwner",
          "type": "address"
        }
      ],
      "name": "transferOwnership",
      "outputs": [],
      "stateMutability": "nonpayable",
      "type": "function"
    },
    {
      "inputs": [],
      "name": "getChainlinkToken",
      "outputs": [
        {
          "internalType": "address",
          "name": "",
          "type": "address"
        }
      ],
      "stateMutability": "view",
      "type": "function",
      "constant": true
    },
    {
      "inputs": [
        {
          "internalType": "uint256",
          "name": "tokenId",
          "type": "uint256"
        }
      ],
      "name": "requestBattleResults",
      "outputs": [
        {
          "internalType": "bytes32",
          "name": "requestId",
          "type": "bytes32"
        }
      ],
      "stateMutability": "nonpayable",
      "type": "function"
    },
    {
      "inputs": [
        {
          "internalType": "bytes32",
          "name": "_requestId",
          "type": "bytes32"
        },
        {
          "internalType": "bool",
          "name": "victory",
          "type": "bool"
        }
      ],
      "name": "fulfillBattleResults",
      "outputs": [],
      "stateMutability": "nonpayable",
      "type": "function"
    }
  ],
  "bytecode": "0x608060405260016004557f3463653962373161316163393461626361643166663931393865373630623863600855737afe1118ea78c1eae84ca8fee5c65bc76ccf879e600960006101000a81548173ffffffffffffffffffffffffffffffffffffffff021916908373ffffffffffffffffffffffffffffffffffffffff16021790555067016345785d8a0000600a553480156200009b57600080fd5b50604051620017733803806200177383398181016040526020811015620000c157600080fd5b81019080805190602001909291905050506000620000e4620001db60201b60201c565b905080600660006101000a81548173ffffffffffffffffffffffffffffffffffffffff021916908373ffffffffffffffffffffffffffffffffffffffff1602179055508073ffffffffffffffffffffffffffffffffffffffff16600073ffffffffffffffffffffffffffffffffffffffff167f8be0079c531659141344cd1fd0a4f28419497f9722a3daafe3b4186f6b6457e060405160405180910390a35062000193620001e360201b60201c565b80600760006101000a81548173ffffffffffffffffffffffffffffffffffffffff021916908373ffffffffffffffffffffffffffffffffffffffff16021790555050620002d1565b600033905090565b6200028b73c89bd4e1632d3a43cb03aaad5262cbe4038bc57173ffffffffffffffffffffffffffffffffffffffff166338cc48316040518163ffffffff1660e01b815260040160206040518083038186803b1580156200024257600080fd5b505afa15801562000257573d6000803e3d6000fd5b505050506040513d60208110156200026e57600080fd5b81019080805190602001909291905050506200028d60201b60201c565b565b80600260006101000a81548173ffffffffffffffffffffffffffffffffffffffff021916908373ffffffffffffffffffffffffffffffffffffffff16021790555050565b61149280620002e16000396000f3fe608060405234801561001057600080fd5b506004361061007d5760003560e01c8063715018a61161005b578063715018a6146101585780638da5cb5b14610162578063db743bcb146101ac578063f2fde38b146101e65761007d565b8063165d35e114610082578063545bf1f3146100cc578063585a18b21461010e575b600080fd5b61008a61022a565b604051808273ffffffffffffffffffffffffffffffffffffffff1673ffffffffffffffffffffffffffffffffffffffff16815260200191505060405180910390f35b6100f8600480360360208110156100e257600080fd5b8101908080359060200190929190505050610239565b6040518082815260200191505060405180910390f35b6101166103e9565b604051808273ffffffffffffffffffffffffffffffffffffffff1673ffffffffffffffffffffffffffffffffffffffff16815260200191505060405180910390f35b61016061040f565b005b61016a61059a565b604051808273ffffffffffffffffffffffffffffffffffffffff1673ffffffffffffffffffffffffffffffffffffffff16815260200191505060405180910390f35b6101e4600480360360408110156101c257600080fd5b81019080803590602001909291908035151590602001909291905050506105c4565b005b610228600480360360208110156101fc57600080fd5b81019080803573ffffffffffffffffffffffffffffffffffffffff169060200190929190505050610794565b005b60006102346109a4565b905090565b6000600760009054906101000a900473ffffffffffffffffffffffffffffffffffffffff1673ffffffffffffffffffffffffffffffffffffffff163373ffffffffffffffffffffffffffffffffffffffff161461029557600080fd5b61029d611338565b6102b16008543063db743bcb60e01b6109ce565b90506103156040518060400160405280600381526020017f67657400000000000000000000000000000000000000000000000000000000008152506040518060600160405280602c81526020016113e6602c9139836109ff9092919063ffffffff16565b6103946040518060400160405280600481526020017f70617468000000000000000000000000000000000000000000000000000000008152506040518060400160405280600981526020017f636f6d706c657465640000000000000000000000000000000000000000000000815250836109ff9092919063ffffffff16565b60006103c5600960009054906101000a900473ffffffffffffffffffffffffffffffffffffffff1683600a54610a32565b905083600b6000838152602001908152602001600020819055508092505050919050565b600760009054906101000a900473ffffffffffffffffffffffffffffffffffffffff1681565b610417610cea565b73ffffffffffffffffffffffffffffffffffffffff16600660009054906101000a900473ffffffffffffffffffffffffffffffffffffffff1673ffffffffffffffffffffffffffffffffffffffff16146104d9576040517f08c379a00000000000000000000000000000000000000000000000000000000081526004018080602001828103825260208152602001807f4f776e61626c653a2063616c6c6572206973206e6f7420746865206f776e657281525060200191505060405180910390fd5b600073ffffffffffffffffffffffffffffffffffffffff16600660009054906101000a900473ffffffffffffffffffffffffffffffffffffffff1673ffffffffffffffffffffffffffffffffffffffff167f8be0079c531659141344cd1fd0a4f28419497f9722a3daafe3b4186f6b6457e060405160405180910390a36000600660006101000a81548173ffffffffffffffffffffffffffffffffffffffff021916908373ffffffffffffffffffffffffffffffffffffffff160217905550565b6000600660009054906101000a900473ffffffffffffffffffffffffffffffffffffffff16905090565b816005600082815260200190815260200160002060009054906101000a900473ffffffffffffffffffffffffffffffffffffffff1673ffffffffffffffffffffffffffffffffffffffff163373ffffffffffffffffffffffffffffffffffffffff161461067c576040517f08c379a00000000000000000000000000000000000000000000000000000000081526004018080602001828103825260288152602001806114356028913960400191505060405180910390fd5b6005600082815260200190815260200160002060006101000a81549073ffffffffffffffffffffffffffffffffffffffff0219169055807f7cc135e0cebb02c3480ae5d74d377283180a2601f8f644edf7987b009316c63a60405160405180910390a2811561078f57600760009054906101000a900473ffffffffffffffffffffffffffffffffffffffff1673ffffffffffffffffffffffffffffffffffffffff1663c5ccb492600b60008681526020019081526020016000205460016040518363ffffffff1660e01b81526004018083815260200182815260200192505050600060405180830381600087803b15801561077657600080fd5b505af115801561078a573d6000803e3d6000fd5b505050505b505050565b61079c610cea565b73ffffffffffffffffffffffffffffffffffffffff16600660009054906101000a900473ffffffffffffffffffffffffffffffffffffffff1673ffffffffffffffffffffffffffffffffffffffff161461085e576040517f08c379a00000000000000000000000000000000000000000000000000000000081526004018080602001828103825260208152602001807f4f776e61626c653a2063616c6c6572206973206e6f7420746865206f776e657281525060200191505060405180910390fd5b600073ffffffffffffffffffffffffffffffffffffffff168173ffffffffffffffffffffffffffffffffffffffff1614156108e4576040517f08c379a00000000000000000000000000000000000000000000000000000000081526004018080602001828103825260268152602001806113c06026913960400191505060405180910390fd5b8073ffffffffffffffffffffffffffffffffffffffff16600660009054906101000a900473ffffffffffffffffffffffffffffffffffffffff1673ffffffffffffffffffffffffffffffffffffffff167f8be0079c531659141344cd1fd0a4f28419497f9722a3daafe3b4186f6b6457e060405160405180910390a380600660006101000a81548173ffffffffffffffffffffffffffffffffffffffff021916908373ffffffffffffffffffffffffffffffffffffffff16021790555050565b6000600260009054906101000a900473ffffffffffffffffffffffffffffffffffffffff16905090565b6109d6611338565b6109de611338565b6109f585858584610cf2909392919063ffffffff16565b9150509392505050565b610a16828460800151610da290919063ffffffff16565b610a2d818460800151610da290919063ffffffff16565b505050565b600030600454604051602001808373ffffffffffffffffffffffffffffffffffffffff1673ffffffffffffffffffffffffffffffffffffffff1660601b815260140182815260200192505050604051602081830303815290604052805190602001209050600454836060018181525050836005600083815260200190815260200160002060006101000a81548173ffffffffffffffffffffffffffffffffffffffff021916908373ffffffffffffffffffffffffffffffffffffffff160217905550807fb5e6e01e79f91267dc17b4e6314d5d4d03593d2ceee0fbb452b750bd70ea5af960405160405180910390a2600260009054906101000a900473ffffffffffffffffffffffffffffffffffffffff1673ffffffffffffffffffffffffffffffffffffffff16634000aea08584610b6a87610dc7565b6040518463ffffffff1660e01b8152600401808473ffffffffffffffffffffffffffffffffffffffff1673ffffffffffffffffffffffffffffffffffffffff16815260200183815260200180602001828103825283818151815260200191508051906020019080838360005b83811015610bf1578082015181840152602081019050610bd6565b50505050905090810190601f168015610c1e5780820380516001836020036101000a031916815260200191505b50945050505050602060405180830381600087803b158015610c3f57600080fd5b505af1158015610c53573d6000803e3d6000fd5b505050506040513d6020811015610c6957600080fd5b8101908080519060200190929190505050610ccf576040517f08c379a00000000000000000000000000000000000000000000000000000000081526004018080602001828103825260238152602001806114126023913960400191505060405180910390fd5b60016004600082825401925050819055508090509392505050565b600033905090565b610cfa611338565b610d0a8560800151610100610f93565b508385600001818152505082856020019073ffffffffffffffffffffffffffffffffffffffff16908173ffffffffffffffffffffffffffffffffffffffff16815250508185604001907bffffffffffffffffffffffffffffffffffffffffffffffffffffffff191690817bffffffffffffffffffffffffffffffffffffffffffffffffffffffff191681525050849050949350505050565b610daf8260038351610fe7565b610dc2818361112c90919063ffffffff16565b505050565b6060634042994660e01b60008084600001518560200151866040015187606001516001896080015160000151604051602401808973ffffffffffffffffffffffffffffffffffffffff1673ffffffffffffffffffffffffffffffffffffffff1681526020018881526020018781526020018673ffffffffffffffffffffffffffffffffffffffff1673ffffffffffffffffffffffffffffffffffffffff168152602001857bffffffffffffffffffffffffffffffffffffffffffffffffffffffff19167bffffffffffffffffffffffffffffffffffffffffffffffffffffffff1916815260200184815260200183815260200180602001828103825283818151815260200191508051906020019080838360005b83811015610ef6578082015181840152602081019050610edb565b50505050905090810190601f168015610f235780820380516001836020036101000a031916815260200191505b509950505050505050505050604051602081830303815290604052907bffffffffffffffffffffffffffffffffffffffffffffffffffffffff19166020820180517bffffffffffffffffffffffffffffffffffffffffffffffffffffffff83818316178352505050509050919050565b610f9b6113a5565b600060208381610fa757fe5b0614610fc05760208281610fb757fe5b06602003820191505b81836020018181525050604051808452600081528281016020016040525082905092915050565b601781116110145761100e8160058460ff16901b60ff16178461114e90919063ffffffff16565b50611127565b60ff811161105657611039601860058460ff16901b178461114e90919063ffffffff16565b506110508160018561116e9092919063ffffffff16565b50611126565b61ffff81116110995761107c601960058460ff16901b178461114e90919063ffffffff16565b506110938160028561116e9092919063ffffffff16565b50611125565b63ffffffff81116110de576110c1601a60058460ff16901b178461114e90919063ffffffff16565b506110d88160048561116e9092919063ffffffff16565b50611124565b67ffffffffffffffff81116111235761110a601b60058460ff16901b178461114e90919063ffffffff16565b506111218160088561116e9092919063ffffffff16565b505b5b5b5b5b505050565b6111346113a5565b61114683846000015151848551611190565b905092915050565b6111566113a5565b6111668384600001515184611249565b905092915050565b6111766113a5565b611187848560000151518585611297565b90509392505050565b6111986113a5565b82518211156111a657600080fd5b846020015182850111156111d1576111d08560026111ca88602001518887016112f8565b02611314565b5b6000808651805187602083010193508088870111156111f05787860182525b60208701925050505b6020841061121c57805182526020820191506020810190506020840393506111f9565b60006001856020036101000a03905080198251168184511681811785525050879350505050949350505050565b6112516113a5565b8360200151831061126e5761126d846002866020015102611314565b5b835180516020858301018481538186141561128a576001820183525b5050508390509392505050565b61129f6113a5565b846020015184830111156112bd576112bc85600286850102611314565b5b60006001836101000a03905085518386820101858319825116178152815185880111156112ea5784870182525b505085915050949350505050565b60008183111561130a5782905061130e565b8190505b92915050565b6060826000015190506113278383610f93565b50611332838261112c565b50505050565b6040518060a0016040528060008019168152602001600073ffffffffffffffffffffffffffffffffffffffff16815260200160007bffffffffffffffffffffffffffffffffffffffffffffffffffffffff191681526020016000815260200161139f6113a5565b81525090565b60405180604001604052806060815260200160008152509056fe4f776e61626c653a206e6577206f776e657220697320746865207a65726f206164647265737368747470733a2f2f6a736f6e706c616365686f6c6465722e74797069636f64652e636f6d2f746f646f732f31756e61626c6520746f207472616e73666572416e6443616c6c20746f206f7261636c65536f75726365206d75737420626520746865206f7261636c65206f66207468652072657175657374a26469706673582212209c0549221b4511e9b9ea82e83813a559a4e1de8e682fee29e66816b1605ff45964736f6c63430006060033",
  "immutableReferences": {},
  "source": "// SPDX-License-Identifier: MIT\npragma solidity ^0.6.6;\n\nimport \"@openzeppelin/contracts/access/Ownable.sol\";\nimport \"@chainlink/contracts/src/v0.6/ChainlinkClient.sol\";\nimport \"./IDungeonsAndDragons.sol\";\n\ncontract Battles is ChainlinkClient, Ownable {\n    using SafeMath_Chainlink for uint256;\n    address public dungeonsAndDragonsContract;\n    bytes32 internal JobId = \"4ce9b71a1ac94abcad1ff9198e760b8c\";\n    address\n        internal ChainlinkOracle = 0x7AFe1118Ea78C1eae84ca8feE5C65Bc76CcF879e;\n    uint256 internal Fee = 0.1 * 10**18; // 0.1 LINK\n    mapping(bytes32 => uint256) requestToTokenId;\n\n    constructor(address _dungeonsAndDragonsContract) public {\n        setPublicChainlinkToken();\n        dungeonsAndDragonsContract = _dungeonsAndDragonsContract;\n    }\n\n    function getChainlinkToken() public view returns (address){\n        return chainlinkTokenAddress();\n    }\n\n    /**\n     * this is hardcoded and centralized for now\n     * but you'd want to call a network of chainlink nodes\n     */\n    function requestBattleResults(uint256 tokenId)\n        external\n        onlyDungeonsAndDragonsContract\n        returns (bytes32 requestId)\n    {\n        //solhint-disable-next-line max-line-length\n        Chainlink.Request memory request = buildChainlinkRequest(\n            JobId,\n            address(this),\n            this.fulfillBattleResults.selector\n        );\n        // Change this to your battle endpoints. Make sure they are decentralized!\n        request.add(\"get\", \"https://jsonplaceholder.typicode.com/todos/1\");\n        request.add(\"path\", \"completed\");\n        bytes32 requestId = sendChainlinkRequestTo(\n            ChainlinkOracle,\n            request,\n            Fee\n        );\n        requestToTokenId[requestId] = tokenId;\n        return requestId;\n    }\n\n    function fulfillBattleResults(bytes32 _requestId, bool victory)\n        public\n        recordChainlinkFulfillment(_requestId)\n    {\n        if (victory) {\n            IDungeonsAndDragons(dungeonsAndDragonsContract).updateExperience(\n                requestToTokenId[_requestId],\n                1\n            );\n        }\n    }\n\n    modifier onlyDungeonsAndDragonsContract() {\n        require(msg.sender == dungeonsAndDragonsContract); // If it is incorrect here, it reverts.\n        _; // Otherwise, it continues.\n    }\n}\n",
  "sourcePath": "/Users/patrick/code/dynamic-nft/contracts/Battles.sol",
  "compiler": {
    "name": "solc",
    "version": "0.6.6+commit.6c089d02.Emscripten.clang"
  },
  "schemaVersion": "3.2.5",
  "updatedAt": "2020-10-24T06:29:39.351Z",
  "networkType": "ethereum",
  "devdoc": {
    "methods": {
      "owner()": {
        "details": "Returns the address of the current owner."
      },
      "renounceOwnership()": {
        "details": "Leaves the contract without owner. It will not be possible to call `onlyOwner` functions anymore. Can only be called by the current owner.     * NOTE: Renouncing ownership will leave the contract without an owner, thereby removing any functionality that is only available to the owner."
      },
      "transferOwnership(address)": {
        "details": "Transfers ownership of the contract to a new account (`newOwner`). Can only be called by the current owner."
      }
    }
  },
  "userdoc": {
    "methods": {
      "requestBattleResults(uint256)": {
        "notice": "this is hardcoded and centralized for now but you'd want to call a network of chainlink nodes"
      }
    }
  }
}