{
  "contractName": "DungeonsAndDragonsCharacter",
  "abi": [
    {
      "inputs": [
        {
          "internalType": "address",
          "name": "_VRFCoordinator",
          "type": "address"
        },
        {
          "internalType": "address",
          "name": "_LinkToken",
          "type": "address"
        },
        {
          "internalType": "bytes32",
          "name": "_keyhash",
          "type": "bytes32"
        }
      ],
      "stateMutability": "nonpayable",
      "type": "constructor"
    },
    {
      "anonymous": false,
      "inputs": [
        {
          "indexed": true,
          "internalType": "address",
          "name": "owner",
          "type": "address"
        },
        {
          "indexed": true,
          "internalType": "address",
          "name": "approved",
          "type": "address"
        },
        {
          "indexed": true,
          "internalType": "uint256",
          "name": "tokenId",
          "type": "uint256"
        }
      ],
      "name": "Approval",
      "type": "event"
    },
    {
      "anonymous": false,
      "inputs": [
        {
          "indexed": true,
          "internalType": "address",
          "name": "owner",
          "type": "address"
        },
        {
          "indexed": true,
          "internalType": "address",
          "name": "operator",
          "type": "address"
        },
        {
          "indexed": false,
          "internalType": "bool",
          "name": "approved",
          "type": "bool"
        }
      ],
      "name": "ApprovalForAll",
      "type": "event"
    },
    {
      "anonymous": false,
      "inputs": [
        {
          "indexed": true,
          "internalType": "address",
          "name": "previousOwner",
          "type": "address"
        },
        {
          "indexed": true,
          "internalType": "address",
          "name": "newOwner",
          "type": "address"
        }
      ],
      "name": "OwnershipTransferred",
      "type": "event"
    },
    {
      "anonymous": false,
      "inputs": [
        {
          "indexed": true,
          "internalType": "address",
          "name": "from",
          "type": "address"
        },
        {
          "indexed": true,
          "internalType": "address",
          "name": "to",
          "type": "address"
        },
        {
          "indexed": true,
          "internalType": "uint256",
          "name": "tokenId",
          "type": "uint256"
        }
      ],
      "name": "Transfer",
      "type": "event"
    },
    {
      "inputs": [],
      "name": "LinkToken",
      "outputs": [
        {
          "internalType": "address",
          "name": "",
          "type": "address"
        }
      ],
      "stateMutability": "view",
      "type": "function",
      "constant": true
    },
    {
      "inputs": [],
      "name": "VRFCoordinator",
      "outputs": [
        {
          "internalType": "address",
          "name": "",
          "type": "address"
        }
      ],
      "stateMutability": "view",
      "type": "function",
      "constant": true
    },
    {
      "inputs": [
        {
          "internalType": "address",
          "name": "to",
          "type": "address"
        },
        {
          "internalType": "uint256",
          "name": "tokenId",
          "type": "uint256"
        }
      ],
      "name": "approve",
      "outputs": [],
      "stateMutability": "nonpayable",
      "type": "function"
    },
    {
      "inputs": [
        {
          "internalType": "address",
          "name": "owner",
          "type": "address"
        }
      ],
      "name": "balanceOf",
      "outputs": [
        {
          "internalType": "uint256",
          "name": "",
          "type": "uint256"
        }
      ],
      "stateMutability": "view",
      "type": "function",
      "constant": true
    },
    {
      "inputs": [],
      "name": "baseURI",
      "outputs": [
        {
          "internalType": "string",
          "name": "",
          "type": "string"
        }
      ],
      "stateMutability": "view",
      "type": "function",
      "constant": true
    },
    {
      "inputs": [
        {
          "internalType": "uint256",
          "name": "",
          "type": "uint256"
        }
      ],
      "name": "characters",
      "outputs": [
        {
          "internalType": "uint256",
          "name": "strength",
          "type": "uint256"
        },
        {
          "internalType": "uint256",
          "name": "dexterity",
          "type": "uint256"
        },
        {
          "internalType": "uint256",
          "name": "constitution",
          "type": "uint256"
        },
        {
          "internalType": "uint256",
          "name": "intelligence",
          "type": "uint256"
        },
        {
          "internalType": "uint256",
          "name": "wisdom",
          "type": "uint256"
        },
        {
          "internalType": "uint256",
          "name": "charisma",
          "type": "uint256"
        },
        {
          "internalType": "uint256",
          "name": "experience",
          "type": "uint256"
        },
        {
          "internalType": "string",
          "name": "name",
          "type": "string"
        }
      ],
      "stateMutability": "view",
      "type": "function",
      "constant": true
    },
    {
      "inputs": [
        {
          "internalType": "uint256",
          "name": "tokenId",
          "type": "uint256"
        }
      ],
      "name": "getApproved",
      "outputs": [
        {
          "internalType": "address",
          "name": "",
          "type": "address"
        }
      ],
      "stateMutability": "view",
      "type": "function",
      "constant": true
    },
    {
      "inputs": [
        {
          "internalType": "address",
          "name": "owner",
          "type": "address"
        },
        {
          "internalType": "address",
          "name": "operator",
          "type": "address"
        }
      ],
      "name": "isApprovedForAll",
      "outputs": [
        {
          "internalType": "bool",
          "name": "",
          "type": "bool"
        }
      ],
      "stateMutability": "view",
      "type": "function",
      "constant": true
    },
    {
      "inputs": [],
      "name": "name",
      "outputs": [
        {
          "internalType": "string",
          "name": "",
          "type": "string"
        }
      ],
      "stateMutability": "view",
      "type": "function",
      "constant": true
    },
    {
      "inputs": [
        {
          "internalType": "bytes32",
          "name": "",
          "type": "bytes32"
        }
      ],
      "name": "nonces",
      "outputs": [
        {
          "internalType": "uint256",
          "name": "",
          "type": "uint256"
        }
      ],
      "stateMutability": "view",
      "type": "function",
      "constant": true
    },
    {
      "inputs": [],
      "name": "owner",
      "outputs": [
        {
          "internalType": "address",
          "name": "",
          "type": "address"
        }
      ],
      "stateMutability": "view",
      "type": "function",
      "constant": true
    },
    {
      "inputs": [
        {
          "internalType": "uint256",
          "name": "tokenId",
          "type": "uint256"
        }
      ],
      "name": "ownerOf",
      "outputs": [
        {
          "internalType": "address",
          "name": "",
          "type": "address"
        }
      ],
      "stateMutability": "view",
      "type": "function",
      "constant": true
    },
    {
      "inputs": [],
      "name": "randomResult",
      "outputs": [
        {
          "internalType": "uint256",
          "name": "",
          "type": "uint256"
        }
      ],
      "stateMutability": "view",
      "type": "function",
      "constant": true
    },
    {
      "inputs": [
        {
          "internalType": "bytes32",
          "name": "requestId",
          "type": "bytes32"
        },
        {
          "internalType": "uint256",
          "name": "randomness",
          "type": "uint256"
        }
      ],
      "name": "rawFulfillRandomness",
      "outputs": [],
      "stateMutability": "nonpayable",
      "type": "function"
    },
    {
      "inputs": [],
      "name": "renounceOwnership",
      "outputs": [],
      "stateMutability": "nonpayable",
      "type": "function"
    },
    {
      "inputs": [
        {
          "internalType": "bytes32",
          "name": "_keyHash",
          "type": "bytes32"
        },
        {
          "internalType": "uint256",
          "name": "_fee",
          "type": "uint256"
        },
        {
          "internalType": "uint256",
          "name": "_seed",
          "type": "uint256"
        }
      ],
      "name": "requestRandomness",
      "outputs": [
        {
          "internalType": "bytes32",
          "name": "requestId",
          "type": "bytes32"
        }
      ],
      "stateMutability": "nonpayable",
      "type": "function"
    },
    {
      "inputs": [
        {
          "internalType": "address",
          "name": "from",
          "type": "address"
        },
        {
          "internalType": "address",
          "name": "to",
          "type": "address"
        },
        {
          "internalType": "uint256",
          "name": "tokenId",
          "type": "uint256"
        }
      ],
      "name": "safeTransferFrom",
      "outputs": [],
      "stateMutability": "nonpayable",
      "type": "function"
    },
    {
      "inputs": [
        {
          "internalType": "address",
          "name": "from",
          "type": "address"
        },
        {
          "internalType": "address",
          "name": "to",
          "type": "address"
        },
        {
          "internalType": "uint256",
          "name": "tokenId",
          "type": "uint256"
        },
        {
          "internalType": "bytes",
          "name": "_data",
          "type": "bytes"
        }
      ],
      "name": "safeTransferFrom",
      "outputs": [],
      "stateMutability": "nonpayable",
      "type": "function"
    },
    {
      "inputs": [
        {
          "internalType": "address",
          "name": "operator",
          "type": "address"
        },
        {
          "internalType": "bool",
          "name": "approved",
          "type": "bool"
        }
      ],
      "name": "setApprovalForAll",
      "outputs": [],
      "stateMutability": "nonpayable",
      "type": "function"
    },
    {
      "inputs": [
        {
          "internalType": "bytes4",
          "name": "interfaceId",
          "type": "bytes4"
        }
      ],
      "name": "supportsInterface",
      "outputs": [
        {
          "internalType": "bool",
          "name": "",
          "type": "bool"
        }
      ],
      "stateMutability": "view",
      "type": "function",
      "constant": true
    },
    {
      "inputs": [],
      "name": "symbol",
      "outputs": [
        {
          "internalType": "string",
          "name": "",
          "type": "string"
        }
      ],
      "stateMutability": "view",
      "type": "function",
      "constant": true
    },
    {
      "inputs": [
        {
          "internalType": "uint256",
          "name": "index",
          "type": "uint256"
        }
      ],
      "name": "tokenByIndex",
      "outputs": [
        {
          "internalType": "uint256",
          "name": "",
          "type": "uint256"
        }
      ],
      "stateMutability": "view",
      "type": "function",
      "constant": true
    },
    {
      "inputs": [
        {
          "internalType": "address",
          "name": "owner",
          "type": "address"
        },
        {
          "internalType": "uint256",
          "name": "index",
          "type": "uint256"
        }
      ],
      "name": "tokenOfOwnerByIndex",
      "outputs": [
        {
          "internalType": "uint256",
          "name": "",
          "type": "uint256"
        }
      ],
      "stateMutability": "view",
      "type": "function",
      "constant": true
    },
    {
      "inputs": [
        {
          "internalType": "uint256",
          "name": "tokenId",
          "type": "uint256"
        }
      ],
      "name": "tokenURI",
      "outputs": [
        {
          "internalType": "string",
          "name": "",
          "type": "string"
        }
      ],
      "stateMutability": "view",
      "type": "function",
      "constant": true
    },
    {
      "inputs": [],
      "name": "totalSupply",
      "outputs": [
        {
          "internalType": "uint256",
          "name": "",
          "type": "uint256"
        }
      ],
      "stateMutability": "view",
      "type": "function",
      "constant": true
    },
    {
      "inputs": [
        {
          "internalType": "address",
          "name": "from",
          "type": "address"
        },
        {
          "internalType": "address",
          "name": "to",
          "type": "address"
        },
        {
          "internalType": "uint256",
          "name": "tokenId",
          "type": "uint256"
        }
      ],
      "name": "transferFrom",
      "outputs": [],
      "stateMutability": "nonpayable",
      "type": "function"
    },
    {
      "inputs": [
        {
          "internalType": "address",
          "name": "newOwner",
          "type": "address"
        }
      ],
      "name": "transferOwnership",
      "outputs": [],
      "stateMutability": "nonpayable",
      "type": "function"
    },
    {
      "inputs": [
        {
          "internalType": "uint256",
          "name": "userProvidedSeed",
          "type": "uint256"
        },
        {
          "internalType": "string",
          "name": "name",
          "type": "string"
        }
      ],
      "name": "requestNewRandomCharacter",
      "outputs": [
        {
          "internalType": "bytes32",
          "name": "",
          "type": "bytes32"
        }
      ],
      "stateMutability": "nonpayable",
      "type": "function"
    },
    {
      "inputs": [
        {
          "internalType": "uint256",
          "name": "tokenId",
          "type": "uint256"
        }
      ],
      "name": "getTokenURI",
      "outputs": [
        {
          "internalType": "string",
          "name": "",
          "type": "string"
        }
      ],
      "stateMutability": "view",
      "type": "function",
      "constant": true
    },
    {
      "inputs": [
        {
          "internalType": "uint256",
          "name": "tokenId",
          "type": "uint256"
        },
        {
          "internalType": "string",
          "name": "_tokenURI",
          "type": "string"
        }
      ],
      "name": "setTokenURI",
      "outputs": [],
      "stateMutability": "nonpayable",
      "type": "function"
    },
    {
      "inputs": [
        {
          "internalType": "uint256",
          "name": "tokenId",
          "type": "uint256"
        }
      ],
      "name": "getLevel",
      "outputs": [
        {
          "internalType": "uint256",
          "name": "",
          "type": "uint256"
        }
      ],
      "stateMutability": "view",
      "type": "function",
      "constant": true
    },
    {
      "inputs": [
        {
          "internalType": "uint256",
          "name": "tokenId",
          "type": "uint256"
        }
      ],
      "name": "getCharacterOverView",
      "outputs": [
        {
          "internalType": "string",
          "name": "",
          "type": "string"
        },
        {
          "internalType": "uint256",
          "name": "",
          "type": "uint256"
        },
        {
          "internalType": "uint256",
          "name": "",
          "type": "uint256"
        },
        {
          "internalType": "uint256",
          "name": "",
          "type": "uint256"
        }
      ],
      "stateMutability": "view",
      "type": "function",
      "constant": true
    },
    {
      "inputs": [
        {
          "internalType": "uint256",
          "name": "tokenId",
          "type": "uint256"
        }
      ],
      "name": "getCharacterStats",
      "outputs": [
        {
          "internalType": "uint256",
          "name": "",
          "type": "uint256"
        },
        {
          "internalType": "uint256",
          "name": "",
          "type": "uint256"
        },
        {
          "internalType": "uint256",
          "name": "",
          "type": "uint256"
        },
        {
          "internalType": "uint256",
          "name": "",
          "type": "uint256"
        },
        {
          "internalType": "uint256",
          "name": "",
          "type": "uint256"
        },
        {
          "internalType": "uint256",
          "name": "",
          "type": "uint256"
        },
        {
          "internalType": "uint256",
          "name": "",
          "type": "uint256"
        }
      ],
      "stateMutability": "view",
      "type": "function",
      "constant": true
    }
  ],
  "bytecode": "0x60806040523480156200001157600080fd5b506040516200493038038062004930833981810160405260608110156200003757600080fd5b8101908080519060200190929190805190602001909291908051906020019092919050505082826040518060400160405280601b81526020017f44756e67656f6e73416e64447261676f6e7343686172616374657200000000008152506040518060400160405280600381526020017f4426440000000000000000000000000000000000000000000000000000000000815250620000e26301ffc9a760e01b6200033460201b60201c565b8160069080519060200190620000fa92919062000445565b5080600790805190602001906200011392919062000445565b506200012c6380ac58cd60e01b6200033460201b60201c565b62000144635b5e139f60e01b6200033460201b60201c565b6200015c63780e9d6360e01b6200033460201b60201c565b505081600b60006101000a81548173ffffffffffffffffffffffffffffffffffffffff021916908373ffffffffffffffffffffffffffffffffffffffff16021790555080600a60006101000a81548173ffffffffffffffffffffffffffffffffffffffff021916908373ffffffffffffffffffffffffffffffffffffffff16021790555050506000620001f46200043d60201b60201c565b905080600d60006101000a81548173ffffffffffffffffffffffffffffffffffffffff021916908373ffffffffffffffffffffffffffffffffffffffff1602179055508073ffffffffffffffffffffffffffffffffffffffff16600073ffffffffffffffffffffffffffffffffffffffff167f8be0079c531659141344cd1fd0a4f28419497f9722a3daafe3b4186f6b6457e060405160405180910390a35082601160006101000a81548173ffffffffffffffffffffffffffffffffffffffff021916908373ffffffffffffffffffffffffffffffffffffffff16021790555081601260006101000a81548173ffffffffffffffffffffffffffffffffffffffff021916908373ffffffffffffffffffffffffffffffffffffffff16021790555080600e8190555067016345785d8a0000600f81905550505050620004f4565b63ffffffff60e01b817bffffffffffffffffffffffffffffffffffffffffffffffffffffffff19161415620003d1576040517f08c379a000000000000000000000000000000000000000000000000000000000815260040180806020018281038252601c8152602001807f4552433136353a20696e76616c696420696e746572666163652069640000000081525060200191505060405180910390fd5b6001600080837bffffffffffffffffffffffffffffffffffffffffffffffffffffffff19167bffffffffffffffffffffffffffffffffffffffffffffffffffffffff1916815260200190815260200160002060006101000a81548160ff02191690831515021790555050565b600033905090565b828054600181600116156101000203166002900490600052602060002090601f016020900481019282601f106200048857805160ff1916838001178555620004b9565b82800160010185558215620004b9579182015b82811115620004b85782518255916020019190600101906200049b565b5b509050620004c89190620004cc565b5090565b620004f191905b80821115620004ed576000816000905550600101620004d3565b5090565b90565b61442c80620005046000396000f3fe608060405234801561001057600080fd5b50600436106101fb5760003560e01c80634f95b5f01161011a57806394985ddd116100ad578063b88d4fde1161007c578063b88d4fde14610d65578063c87b56dd14610e6a578063dc6cfe1014610f11578063e985e9c514610f67578063f2fde38b14610fe3576101fb565b806394985ddd14610c1857806395d89b4114610c505780639e317f1214610cd3578063a22cb46514610d15576101fb565b806370a08231116100e957806370a0823114610b2a578063715018a614610b8257806386481d4014610b8c5780638da5cb5b14610bce576101fb565b80634f95b5f0146109115780636352211e146109cd5780636c0360eb14610a3b5780636fe0c04614610abe576101fb565b80632f745c591161019257806342842e0e1161016157806342842e0e1461073f5780634810bc59146107ad5780634f6ccce7146108855780634f8e2fdf146108c7576101fb565b80632f745c59146105ce57806333b60863146106305780633bb3a24d1461067a57806342619f6614610721576101fb565b8063095ea7b3116101ce578063095ea7b31461042f578063162094c41461047d57806318160ddd1461054257806323b872dd14610560576101fb565b806301ffc9a71461020057806306396dbe1461026557806306fdde031461033e578063081812fc146103c1575b600080fd5b61024b6004803603602081101561021657600080fd5b8101908080357bffffffffffffffffffffffffffffffffffffffffffffffffffffffff19169060200190929190505050611027565b604051808215151515815260200191505060405180910390f35b6103286004803603604081101561027b57600080fd5b8101908080359060200190929190803590602001906401000000008111156102a257600080fd5b8201836020820111156102b457600080fd5b803590602001918460018302840111640100000000831117156102d657600080fd5b91908080601f016020809104026020016040519081016040528093929190818152602001838380828437600081840152601f19601f82011690508083019250505050505050919291929050505061108e565b6040518082815260200191505060405180910390f35b61034661125b565b6040518080602001828103825283818151815260200191508051906020019080838360005b8381101561038657808201518184015260208101905061036b565b50505050905090810190601f1680156103b35780820380516001836020036101000a031916815260200191505b509250505060405180910390f35b6103ed600480360360208110156103d757600080fd5b81019080803590602001909291905050506112fd565b604051808273ffffffffffffffffffffffffffffffffffffffff1673ffffffffffffffffffffffffffffffffffffffff16815260200191505060405180910390f35b61047b6004803603604081101561044557600080fd5b81019080803573ffffffffffffffffffffffffffffffffffffffff16906020019092919080359060200190929190505050611398565b005b6105406004803603604081101561049357600080fd5b8101908080359060200190929190803590602001906401000000008111156104ba57600080fd5b8201836020820111156104cc57600080fd5b803590602001918460018302840111640100000000831117156104ee57600080fd5b91908080601f016020809104026020016040519081016040528093929190818152602001838380828437600081840152601f19601f8201169050808301925050505050505091929192905050506114dc565b005b61054a611550565b6040518082815260200191505060405180910390f35b6105cc6004803603606081101561057657600080fd5b81019080803573ffffffffffffffffffffffffffffffffffffffff169060200190929190803573ffffffffffffffffffffffffffffffffffffffff16906020019092919080359060200190929190505050611561565b005b61061a600480360360408110156105e457600080fd5b81019080803573ffffffffffffffffffffffffffffffffffffffff169060200190929190803590602001909291905050506115d7565b6040518082815260200191505060405180910390f35b610638611632565b604051808273ffffffffffffffffffffffffffffffffffffffff1673ffffffffffffffffffffffffffffffffffffffff16815260200191505060405180910390f35b6106a66004803603602081101561069057600080fd5b8101908080359060200190929190505050611658565b6040518080602001828103825283818151815260200191508051906020019080838360005b838110156106e65780820151818401526020810190506106cb565b50505050905090810190601f1680156107135780820380516001836020036101000a031916815260200191505b509250505060405180910390f35b61072961166a565b6040518082815260200191505060405180910390f35b6107ab6004803603606081101561075557600080fd5b81019080803573ffffffffffffffffffffffffffffffffffffffff169060200190929190803573ffffffffffffffffffffffffffffffffffffffff16906020019092919080359060200190929190505050611670565b005b6107d9600480360360208110156107c357600080fd5b8101908080359060200190929190505050611690565b6040518089815260200188815260200187815260200186815260200185815260200184815260200183815260200180602001828103825283818151815260200191508051906020019080838360005b83811015610843578082015181840152602081019050610828565b50505050905090810190601f1680156108705780820380516001836020036101000a031916815260200191505b50995050505050505050505060405180910390f35b6108b16004803603602081101561089b57600080fd5b810190808035906020019092919050505061177d565b6040518082815260200191505060405180910390f35b6108cf6117a0565b604051808273ffffffffffffffffffffffffffffffffffffffff1673ffffffffffffffffffffffffffffffffffffffff16815260200191505060405180910390f35b61093d6004803603602081101561092757600080fd5b81019080803590602001909291905050506117c6565b6040518080602001858152602001848152602001838152602001828103825286818151815260200191508051906020019080838360005b8381101561098f578082015181840152602081019050610974565b50505050905090810190601f1680156109bc5780820380516001836020036101000a031916815260200191505b509550505050505060405180910390f35b6109f9600480360360208110156109e357600080fd5b810190808035906020019092919050505061197d565b604051808273ffffffffffffffffffffffffffffffffffffffff1673ffffffffffffffffffffffffffffffffffffffff16815260200191505060405180910390f35b610a436119b4565b6040518080602001828103825283818151815260200191508051906020019080838360005b83811015610a83578082015181840152602081019050610a68565b50505050905090810190601f168015610ab05780820380516001836020036101000a031916815260200191505b509250505060405180910390f35b610aea60048036036020811015610ad457600080fd5b8101908080359060200190929190505050611a56565b6040518088815260200187815260200186815260200185815260200184815260200183815260200182815260200197505050505050505060405180910390f35b610b6c60048036036020811015610b4057600080fd5b81019080803573ffffffffffffffffffffffffffffffffffffffff169060200190929190505050611b53565b6040518082815260200191505060405180910390f35b610b8a611c28565b005b610bb860048036036020811015610ba257600080fd5b8101908080359060200190929190505050611db3565b6040518082815260200191505060405180910390f35b610bd6611de3565b604051808273ffffffffffffffffffffffffffffffffffffffff1673ffffffffffffffffffffffffffffffffffffffff16815260200191505060405180910390f35b610c4e60048036036040811015610c2e57600080fd5b810190808035906020019092919080359060200190929190505050611e0d565b005b610c58611ede565b6040518080602001828103825283818151815260200191508051906020019080838360005b83811015610c98578082015181840152602081019050610c7d565b50505050905090810190601f168015610cc55780820380516001836020036101000a031916815260200191505b509250505060405180910390f35b610cff60048036036020811015610ce957600080fd5b8101908080359060200190929190505050611f80565b6040518082815260200191505060405180910390f35b610d6360048036036040811015610d2b57600080fd5b81019080803573ffffffffffffffffffffffffffffffffffffffff169060200190929190803515159060200190929190505050611f98565b005b610e6860048036036080811015610d7b57600080fd5b81019080803573ffffffffffffffffffffffffffffffffffffffff169060200190929190803573ffffffffffffffffffffffffffffffffffffffff1690602001909291908035906020019092919080359060200190640100000000811115610de257600080fd5b820183602082011115610df457600080fd5b80359060200191846001830284011164010000000083111715610e1657600080fd5b91908080601f016020809104026020016040519081016040528093929190818152602001838380828437600081840152601f19601f820116905080830192505050505050509192919290505050612150565b005b610e9660048036036020811015610e8057600080fd5b81019080803590602001909291905050506121c8565b6040518080602001828103825283818151815260200191508051906020019080838360005b83811015610ed6578082015181840152602081019050610ebb565b50505050905090810190601f168015610f035780820380516001836020036101000a031916815260200191505b509250505060405180910390f35b610f5160048036036060811015610f2757600080fd5b810190808035906020019092919080359060200190929190803590602001909291905050506124b1565b6040518082815260200191505060405180910390f35b610fc960048036036040811015610f7d57600080fd5b81019080803573ffffffffffffffffffffffffffffffffffffffff169060200190929190803573ffffffffffffffffffffffffffffffffffffffff1690602001909291905050506126c3565b604051808215151515815260200191505060405180910390f35b61102560048036036020811015610ff957600080fd5b81019080803573ffffffffffffffffffffffffffffffffffffffff169060200190929190505050612757565b005b6000806000837bffffffffffffffffffffffffffffffffffffffffffffffffffffffff19167bffffffffffffffffffffffffffffffffffffffffffffffffffffffff1916815260200190815260200160002060009054906101000a900460ff169050919050565b6000600f54600a60009054906101000a900473ffffffffffffffffffffffffffffffffffffffff1673ffffffffffffffffffffffffffffffffffffffff166370a08231306040518263ffffffff1660e01b8152600401808273ffffffffffffffffffffffffffffffffffffffff1673ffffffffffffffffffffffffffffffffffffffff16815260200191505060206040518083038186803b15801561113257600080fd5b505afa158015611146573d6000803e3d6000fd5b505050506040513d602081101561115c57600080fd5b810190808051906020019092919050505010156111c4576040517f08c379a000000000000000000000000000000000000000000000000000000000815260040180806020018281038252602b8152602001806141f1602b913960400191505060405180910390fd5b60006111d5600e54600f54866124b1565b9050826014600083815260200190815260200160002090805190602001906111fe9291906140ad565b50336015600083815260200190815260200160002060006101000a81548173ffffffffffffffffffffffffffffffffffffffff021916908373ffffffffffffffffffffffffffffffffffffffff1602179055508091505092915050565b606060068054600181600116156101000203166002900480601f0160208091040260200160405190810160405280929190818152602001828054600181600116156101000203166002900480156112f35780601f106112c8576101008083540402835291602001916112f3565b820191906000526020600020905b8154815290600101906020018083116112d657829003601f168201915b5050505050905090565b600061130882612967565b61135d576040517f08c379a000000000000000000000000000000000000000000000000000000000815260040180806020018281038252602c8152602001806142f5602c913960400191505060405180910390fd5b6004600083815260200190815260200160002060009054906101000a900473ffffffffffffffffffffffffffffffffffffffff169050919050565b60006113a38261197d565b90508073ffffffffffffffffffffffffffffffffffffffff168373ffffffffffffffffffffffffffffffffffffffff16141561142a576040517f08c379a00000000000000000000000000000000000000000000000000000000081526004018080602001828103825260218152602001806143a56021913960400191505060405180910390fd5b8073ffffffffffffffffffffffffffffffffffffffff16611449612984565b73ffffffffffffffffffffffffffffffffffffffff161480611478575061147781611472612984565b6126c3565b5b6114cd576040517f08c379a00000000000000000000000000000000000000000000000000000000081526004018080602001828103825260388152602001806142486038913960400191505060405180910390fd5b6114d7838361298c565b505050565b6114ed6114e7612984565b83612a45565b611542576040517f08c379a00000000000000000000000000000000000000000000000000000000081526004018080602001828103825260318152602001806143c66031913960400191505060405180910390fd5b61154c8282612b39565b5050565b600061155c6002612bc3565b905090565b61157261156c612984565b82612a45565b6115c7576040517f08c379a00000000000000000000000000000000000000000000000000000000081526004018080602001828103825260318152602001806143c66031913960400191505060405180910390fd5b6115d2838383612bd8565b505050565b600061162a82600160008673ffffffffffffffffffffffffffffffffffffffff1673ffffffffffffffffffffffffffffffffffffffff168152602001908152602001600020612e1b90919063ffffffff16565b905092915050565b601160009054906101000a900473ffffffffffffffffffffffffffffffffffffffff1681565b6060611663826121c8565b9050919050565b60105481565b61168b83838360405180602001604052806000815250612150565b505050565b6013818154811061169d57fe5b9060005260206000209060080201600091509050806000015490806001015490806002015490806003015490806004015490806005015490806006015490806007018054600181600116156101000203166002900480601f0160208091040260200160405190810160405280929190818152602001828054600181600116156101000203166002900480156117735780601f1061174857610100808354040283529160200191611773565b820191906000526020600020905b81548152906001019060200180831161175657829003601f168201915b5050505050905088565b600080611794836002612e3590919063ffffffff16565b50905080915050919050565b601260009054906101000a900473ffffffffffffffffffffffffffffffffffffffff1681565b60606000806000601385815481106117da57fe5b9060005260206000209060080201600701601386815481106117f857fe5b9060005260206000209060080201600501546013878154811061181757fe5b9060005260206000209060080201600401546013888154811061183657fe5b9060005260206000209060080201600301546013898154811061185557fe5b90600052602060002090600802016002015460138a8154811061187457fe5b90600052602060002090600802016001015460138b8154811061189357fe5b90600052602060002090600802016000015401010101016118b387611db3565b601388815481106118c057fe5b906000526020600020906008020160060154838054600181600116156101000203166002900480601f0160208091040260200160405190810160405280929190818152602001828054600181600116156101000203166002900480156119675780601f1061193c57610100808354040283529160200191611967565b820191906000526020600020905b81548152906001019060200180831161194a57829003601f168201915b5050505050935093509350935093509193509193565b60006119ad826040518060600160405280602981526020016142aa602991396002612e649092919063ffffffff16565b9050919050565b606060098054600181600116156101000203166002900480601f016020809104026020016040519081016040528092919081815260200182805460018160011615610100020316600290048015611a4c5780601f10611a2157610100808354040283529160200191611a4c565b820191906000526020600020905b815481529060010190602001808311611a2f57829003601f168201915b5050505050905090565b600080600080600080600060138881548110611a6e57fe5b90600052602060002090600802016000015460138981548110611a8d57fe5b90600052602060002090600802016001015460138a81548110611aac57fe5b90600052602060002090600802016002015460138b81548110611acb57fe5b90600052602060002090600802016003015460138c81548110611aea57fe5b90600052602060002090600802016004015460138d81548110611b0957fe5b90600052602060002090600802016005015460138e81548110611b2857fe5b9060005260206000209060080201600601549650965096509650965096509650919395979092949650565b60008073ffffffffffffffffffffffffffffffffffffffff168273ffffffffffffffffffffffffffffffffffffffff161415611bda576040517f08c379a000000000000000000000000000000000000000000000000000000000815260040180806020018281038252602a815260200180614280602a913960400191505060405180910390fd5b611c21600160008473ffffffffffffffffffffffffffffffffffffffff1673ffffffffffffffffffffffffffffffffffffffff168152602001908152602001600020612e83565b9050919050565b611c30612984565b73ffffffffffffffffffffffffffffffffffffffff16600d60009054906101000a900473ffffffffffffffffffffffffffffffffffffffff1673ffffffffffffffffffffffffffffffffffffffff1614611cf2576040517f08c379a00000000000000000000000000000000000000000000000000000000081526004018080602001828103825260208152602001807f4f776e61626c653a2063616c6c6572206973206e6f7420746865206f776e657281525060200191505060405180910390fd5b600073ffffffffffffffffffffffffffffffffffffffff16600d60009054906101000a900473ffffffffffffffffffffffffffffffffffffffff1673ffffffffffffffffffffffffffffffffffffffff167f8be0079c531659141344cd1fd0a4f28419497f9722a3daafe3b4186f6b6457e060405160405180910390a36000600d60006101000a81548173ffffffffffffffffffffffffffffffffffffffff021916908373ffffffffffffffffffffffffffffffffffffffff160217905550565b6000611ddc60138381548110611dc557fe5b906000526020600020906008020160060154612e98565b9050919050565b6000600d60009054906101000a900473ffffffffffffffffffffffffffffffffffffffff16905090565b600b60009054906101000a900473ffffffffffffffffffffffffffffffffffffffff1673ffffffffffffffffffffffffffffffffffffffff163373ffffffffffffffffffffffffffffffffffffffff1614611ed0576040517f08c379a000000000000000000000000000000000000000000000000000000000815260040180806020018281038252601f8152602001807f4f6e6c7920565246436f6f7264696e61746f722063616e2066756c66696c6c0081525060200191505060405180910390fd5b611eda8282612edd565b5050565b606060078054600181600116156101000203166002900480601f016020809104026020016040519081016040528092919081815260200182805460018160011615610100020316600290048015611f765780601f10611f4b57610100808354040283529160200191611f76565b820191906000526020600020905b815481529060010190602001808311611f5957829003601f168201915b5050505050905090565b600c6020528060005260406000206000915090505481565b611fa0612984565b73ffffffffffffffffffffffffffffffffffffffff168273ffffffffffffffffffffffffffffffffffffffff161415612041576040517f08c379a00000000000000000000000000000000000000000000000000000000081526004018080602001828103825260198152602001807f4552433732313a20617070726f766520746f2063616c6c65720000000000000081525060200191505060405180910390fd5b806005600061204e612984565b73ffffffffffffffffffffffffffffffffffffffff1673ffffffffffffffffffffffffffffffffffffffff16815260200190815260200160002060008473ffffffffffffffffffffffffffffffffffffffff1673ffffffffffffffffffffffffffffffffffffffff16815260200190815260200160002060006101000a81548160ff0219169083151502179055508173ffffffffffffffffffffffffffffffffffffffff166120fb612984565b73ffffffffffffffffffffffffffffffffffffffff167f17307eab39ab6107e8899845ad3d59bd9653f200f220920489ca2b5937696c3183604051808215151515815260200191505060405180910390a35050565b61216161215b612984565b83612a45565b6121b6576040517f08c379a00000000000000000000000000000000000000000000000000000000081526004018080602001828103825260318152602001806143c66031913960400191505060405180910390fd5b6121c28484848461318a565b50505050565b60606121d382612967565b612228576040517f08c379a000000000000000000000000000000000000000000000000000000000815260040180806020018281038252602f815260200180614376602f913960400191505060405180910390fd5b6060600860008481526020019081526020016000208054600181600116156101000203166002900480601f0160208091040260200160405190810160405280929190818152602001828054600181600116156101000203166002900480156122d15780601f106122a6576101008083540402835291602001916122d1565b820191906000526020600020905b8154815290600101906020018083116122b457829003601f168201915b5050505050905060006009805460018160011615610100020316600290049050141561230057809150506124ac565b6000815111156123d957600981604051602001808380546001816001161561010002031660029004801561236b5780601f1061234957610100808354040283529182019161236b565b820191906000526020600020905b815481529060010190602001808311612357575b505082805190602001908083835b6020831061239c5780518252602082019150602081019050602083039250612379565b6001836020036101000a038019825116818451168082178552505050505050905001925050506040516020818303038152906040529150506124ac565b60096123e4846131fc565b60405160200180838054600181600116156101000203166002900480156124425780601f10612420576101008083540402835291820191612442565b820191906000526020600020905b81548152906001019060200180831161242e575b505082805190602001908083835b602083106124735780518252602082019150602081019050602083039250612450565b6001836020036101000a038019825116818451168082178552505050505050905001925050506040516020818303038152906040529150505b919050565b6000600a60009054906101000a900473ffffffffffffffffffffffffffffffffffffffff1673ffffffffffffffffffffffffffffffffffffffff16634000aea0600b60009054906101000a900473ffffffffffffffffffffffffffffffffffffffff1685878660405160200180838152602001828152602001925050506040516020818303038152906040526040518463ffffffff1660e01b8152600401808473ffffffffffffffffffffffffffffffffffffffff1673ffffffffffffffffffffffffffffffffffffffff16815260200183815260200180602001828103825283818151815260200191508051906020019080838360005b838110156125c45780820151818401526020810190506125a9565b50505050905090810190601f1680156125f15780820380516001836020036101000a031916815260200191505b50945050505050602060405180830381600087803b15801561261257600080fd5b505af1158015612626573d6000803e3d6000fd5b505050506040513d602081101561263c57600080fd5b810190808051906020019092919050505050600061266f858430600c60008a815260200190815260200160002054613343565b90506126986001600c6000888152602001908152602001600020546133bd90919063ffffffff16565b600c6000878152602001908152602001600020819055506126b98582613445565b9150509392505050565b6000600560008473ffffffffffffffffffffffffffffffffffffffff1673ffffffffffffffffffffffffffffffffffffffff16815260200190815260200160002060008373ffffffffffffffffffffffffffffffffffffffff1673ffffffffffffffffffffffffffffffffffffffff16815260200190815260200160002060009054906101000a900460ff16905092915050565b61275f612984565b73ffffffffffffffffffffffffffffffffffffffff16600d60009054906101000a900473ffffffffffffffffffffffffffffffffffffffff1673ffffffffffffffffffffffffffffffffffffffff1614612821576040517f08c379a00000000000000000000000000000000000000000000000000000000081526004018080602001828103825260208152602001807f4f776e61626c653a2063616c6c6572206973206e6f7420746865206f776e657281525060200191505060405180910390fd5b600073ffffffffffffffffffffffffffffffffffffffff168173ffffffffffffffffffffffffffffffffffffffff1614156128a7576040517f08c379a00000000000000000000000000000000000000000000000000000000081526004018080602001828103825260268152602001806141a76026913960400191505060405180910390fd5b8073ffffffffffffffffffffffffffffffffffffffff16600d60009054906101000a900473ffffffffffffffffffffffffffffffffffffffff1673ffffffffffffffffffffffffffffffffffffffff167f8be0079c531659141344cd1fd0a4f28419497f9722a3daafe3b4186f6b6457e060405160405180910390a380600d60006101000a81548173ffffffffffffffffffffffffffffffffffffffff021916908373ffffffffffffffffffffffffffffffffffffffff16021790555050565b600061297d82600261347e90919063ffffffff16565b9050919050565b600033905090565b816004600083815260200190815260200160002060006101000a81548173ffffffffffffffffffffffffffffffffffffffff021916908373ffffffffffffffffffffffffffffffffffffffff160217905550808273ffffffffffffffffffffffffffffffffffffffff166129ff8361197d565b73ffffffffffffffffffffffffffffffffffffffff167f8c5be1e5ebec7d5bd14f71427d1e84f3dd0314c0f7b2291e5b200ac8c7c3b92560405160405180910390a45050565b6000612a5082612967565b612aa5576040517f08c379a000000000000000000000000000000000000000000000000000000000815260040180806020018281038252602c81526020018061421c602c913960400191505060405180910390fd5b6000612ab08361197d565b90508073ffffffffffffffffffffffffffffffffffffffff168473ffffffffffffffffffffffffffffffffffffffff161480612b1f57508373ffffffffffffffffffffffffffffffffffffffff16612b07846112fd565b73ffffffffffffffffffffffffffffffffffffffff16145b80612b305750612b2f81856126c3565b5b91505092915050565b612b4282612967565b612b97576040517f08c379a000000000000000000000000000000000000000000000000000000000815260040180806020018281038252602c815260200180614321602c913960400191505060405180910390fd5b80600860008481526020019081526020016000209080519060200190612bbe9291906140ad565b505050565b6000612bd182600001613498565b9050919050565b8273ffffffffffffffffffffffffffffffffffffffff16612bf88261197d565b73ffffffffffffffffffffffffffffffffffffffff1614612c64576040517f08c379a000000000000000000000000000000000000000000000000000000000815260040180806020018281038252602981526020018061434d6029913960400191505060405180910390fd5b600073ffffffffffffffffffffffffffffffffffffffff168273ffffffffffffffffffffffffffffffffffffffff161415612cea576040517f08c379a00000000000000000000000000000000000000000000000000000000081526004018080602001828103825260248152602001806141cd6024913960400191505060405180910390fd5b612cf58383836134a9565b612d0060008261298c565b612d5181600160008673ffffffffffffffffffffffffffffffffffffffff1673ffffffffffffffffffffffffffffffffffffffff1681526020019081526020016000206134ae90919063ffffffff16565b50612da381600160008573ffffffffffffffffffffffffffffffffffffffff1673ffffffffffffffffffffffffffffffffffffffff1681526020019081526020016000206134c890919063ffffffff16565b50612dba818360026134e29092919063ffffffff16565b50808273ffffffffffffffffffffffffffffffffffffffff168473ffffffffffffffffffffffffffffffffffffffff167fddf252ad1be2c89b69c2b068fc378daa952ba7f163c4a11628f55a4df523b3ef60405160405180910390a4505050565b6000612e2a8360000183613517565b60001c905092915050565b600080600080612e48866000018661359a565b915091508160001c8160001c8090509350935050509250929050565b6000612e77846000018460001b84613633565b60001c90509392505050565b6000612e9182600001613729565b9050919050565b60008060026001840181612ea857fe5b0490508291505b81811015612ed757809150600281828581612ec657fe5b040181612ecf57fe5b049050612eaf565b50919050565b600060138054905090506000601260648481612ef557fe5b0681612efd57fe5b0690506000601260646127108681612f1157fe5b0681612f1957fe5b0481612f2157fe5b06905060006012612710620f42408781612f3757fe5b0681612f3f57fe5b0481612f4757fe5b06905060006012620f42406305f5e1008881612f5f57fe5b0681612f6757fe5b0481612f6f57fe5b069050600060126305f5e1006402540be4008981612f8957fe5b0681612f9157fe5b0481612f9957fe5b069050600060126402540be40064e8d4a510008a81612fb457fe5b0681612fbc57fe5b0481612fc457fe5b06905060008090506013604051806101000160405280898152602001888152602001878152602001868152602001858152602001848152602001838152602001601460008e81526020019081526020016000208054600181600116156101000203166002900480601f0160208091040260200160405190810160405280929190818152602001828054600181600116156101000203166002900480156130ab5780601f10613080576101008083540402835291602001916130ab565b820191906000526020600020905b81548152906001019060200180831161308e57829003601f168201915b50505050508152509080600181540180825580915050600190039060005260206000209060080201600090919091909150600082015181600001556020820151816001015560408201518160020155606082015181600301556080820151816004015560a0820151816005015560c0820151816006015560e082015181600701908051906020019061313e9291906140ad565b50505061317e601560008c815260200190815260200160002060009054906101000a900473ffffffffffffffffffffffffffffffffffffffff168961373a565b50505050505050505050565b613195848484612bd8565b6131a184848484613758565b6131f6576040517f08c379a00000000000000000000000000000000000000000000000000000000081526004018080602001828103825260328152602001806141756032913960400191505060405180910390fd5b50505050565b60606000821415613244576040518060400160405280600181526020017f3000000000000000000000000000000000000000000000000000000000000000815250905061333e565b600082905060005b6000821461326e578080600101915050600a828161326657fe5b04915061324c565b60608167ffffffffffffffff8111801561328757600080fd5b506040519080825280601f01601f1916602001820160405280156132ba5781602001600182028036833780820191505090505b50905060006001830390508593505b6000841461333657600a84816132db57fe5b0660300160f81b828280600190039350815181106132f557fe5b60200101907effffffffffffffffffffffffffffffffffffffffffffffffffffffffffffff1916908160001a905350600a848161332e57fe5b0493506132c9565b819450505050505b919050565b600084848484604051602001808581526020018481526020018373ffffffffffffffffffffffffffffffffffffffff1673ffffffffffffffffffffffffffffffffffffffff1681526020018281526020019450505050506040516020818303038152906040528051906020012060001c9050949350505050565b60008082840190508381101561343b576040517f08c379a000000000000000000000000000000000000000000000000000000000815260040180806020018281038252601b8152602001807f536166654d6174683a206164646974696f6e206f766572666c6f77000000000081525060200191505060405180910390fd5b8091505092915050565b60008282604051602001808381526020018281526020019250505060405160208183030381529060405280519060200120905092915050565b6000613490836000018360001b61399d565b905092915050565b600081600001805490509050919050565b505050565b60006134c0836000018360001b6139c0565b905092915050565b60006134da836000018360001b613aa8565b905092915050565b600061350e846000018460001b8473ffffffffffffffffffffffffffffffffffffffff1660001b613b18565b90509392505050565b600081836000018054905011613578576040517f08c379a00000000000000000000000000000000000000000000000000000000081526004018080602001828103825260228152602001806141536022913960400191505060405180910390fd5b82600001828154811061358757fe5b9060005260206000200154905092915050565b600080828460000180549050116135fc576040517f08c379a00000000000000000000000000000000000000000000000000000000081526004018080602001828103825260228152602001806142d36022913960400191505060405180910390fd5b600084600001848154811061360d57fe5b906000526020600020906002020190508060000154816001015492509250509250929050565b600080846001016000858152602001908152602001600020549050600081141583906136fa576040517f08c379a00000000000000000000000000000000000000000000000000000000081526004018080602001828103825283818151815260200191508051906020019080838360005b838110156136bf5780820151818401526020810190506136a4565b50505050905090810190601f1680156136ec5780820380516001836020036101000a031916815260200191505b509250505060405180910390fd5b5084600001600182038154811061370d57fe5b9060005260206000209060020201600101549150509392505050565b600081600001805490509050919050565b613754828260405180602001604052806000815250613bf4565b5050565b60006137798473ffffffffffffffffffffffffffffffffffffffff16613c65565b6137865760019050613995565b606061391c63150b7a0260e01b61379b612984565b888787604051602401808573ffffffffffffffffffffffffffffffffffffffff1673ffffffffffffffffffffffffffffffffffffffff1681526020018473ffffffffffffffffffffffffffffffffffffffff1673ffffffffffffffffffffffffffffffffffffffff16815260200183815260200180602001828103825283818151815260200191508051906020019080838360005b8381101561384b578082015181840152602081019050613830565b50505050905090810190601f1680156138785780820380516001836020036101000a031916815260200191505b5095505050505050604051602081830303815290604052907bffffffffffffffffffffffffffffffffffffffffffffffffffffffff19166020820180517bffffffffffffffffffffffffffffffffffffffffffffffffffffffff8381831617835250505050604051806060016040528060328152602001614175603291398773ffffffffffffffffffffffffffffffffffffffff16613c789092919063ffffffff16565b9050600081806020019051602081101561393557600080fd5b8101908080519060200190929190505050905063150b7a0260e01b7bffffffffffffffffffffffffffffffffffffffffffffffffffffffff1916817bffffffffffffffffffffffffffffffffffffffffffffffffffffffff191614925050505b949350505050565b600080836001016000848152602001908152602001600020541415905092915050565b60008083600101600084815260200190815260200160002054905060008114613a9c5760006001820390506000600186600001805490500390506000866000018281548110613a0b57fe5b9060005260206000200154905080876000018481548110613a2857fe5b9060005260206000200181905550600183018760010160008381526020019081526020016000208190555086600001805480613a6057fe5b60019003818190600052602060002001600090559055866001016000878152602001908152602001600020600090556001945050505050613aa2565b60009150505b92915050565b6000613ab48383613c90565b613b0d578260000182908060018154018082558091505060019003906000526020600020016000909190919091505582600001805490508360010160008481526020019081526020016000208190555060019050613b12565b600090505b92915050565b6000808460010160008581526020019081526020016000205490506000811415613bbf57846000016040518060400160405280868152602001858152509080600181540180825580915050600190039060005260206000209060020201600090919091909150600082015181600001556020820151816001015550508460000180549050856001016000868152602001908152602001600020819055506001915050613bed565b82856000016001830381548110613bd257fe5b90600052602060002090600202016001018190555060009150505b9392505050565b613bfe8383613cb3565b613c0b6000848484613758565b613c60576040517f08c379a00000000000000000000000000000000000000000000000000000000081526004018080602001828103825260328152602001806141756032913960400191505060405180910390fd5b505050565b600080823b905060008111915050919050565b6060613c878484600085613ea7565b90509392505050565b600080836001016000848152602001908152602001600020541415905092915050565b600073ffffffffffffffffffffffffffffffffffffffff168273ffffffffffffffffffffffffffffffffffffffff161415613d56576040517f08c379a00000000000000000000000000000000000000000000000000000000081526004018080602001828103825260208152602001807f4552433732313a206d696e7420746f20746865207a65726f206164647265737381525060200191505060405180910390fd5b613d5f81612967565b15613dd2576040517f08c379a000000000000000000000000000000000000000000000000000000000815260040180806020018281038252601c8152602001807f4552433732313a20746f6b656e20616c7265616479206d696e7465640000000081525060200191505060405180910390fd5b613dde600083836134a9565b613e2f81600160008573ffffffffffffffffffffffffffffffffffffffff1673ffffffffffffffffffffffffffffffffffffffff1681526020019081526020016000206134c890919063ffffffff16565b50613e46818360026134e29092919063ffffffff16565b50808273ffffffffffffffffffffffffffffffffffffffff16600073ffffffffffffffffffffffffffffffffffffffff167fddf252ad1be2c89b69c2b068fc378daa952ba7f163c4a11628f55a4df523b3ef60405160405180910390a45050565b6060613eb285613c65565b613f24576040517f08c379a000000000000000000000000000000000000000000000000000000000815260040180806020018281038252601d8152602001807f416464726573733a2063616c6c20746f206e6f6e2d636f6e747261637400000081525060200191505060405180910390fd5b600060608673ffffffffffffffffffffffffffffffffffffffff1685876040518082805190602001908083835b60208310613f745780518252602082019150602081019050602083039250613f51565b6001836020036101000a03801982511681845116808217855250505050505090500191505060006040518083038185875af1925050503d8060008114613fd6576040519150601f19603f3d011682016040523d82523d6000602084013e613fdb565b606091505b50915091508115613ff05780925050506140a5565b6000815111156140035780518082602001fd5b836040517f08c379a00000000000000000000000000000000000000000000000000000000081526004018080602001828103825283818151815260200191508051906020019080838360005b8381101561406a57808201518184015260208101905061404f565b50505050905090810190601f1680156140975780820380516001836020036101000a031916815260200191505b509250505060405180910390fd5b949350505050565b828054600181600116156101000203166002900490600052602060002090601f016020900481019282601f106140ee57805160ff191683800117855561411c565b8280016001018555821561411c579182015b8281111561411b578251825591602001919060010190614100565b5b509050614129919061412d565b5090565b61414f91905b8082111561414b576000816000905550600101614133565b5090565b9056fe456e756d657261626c655365743a20696e646578206f7574206f6620626f756e64734552433732313a207472616e7366657220746f206e6f6e20455243373231526563656976657220696d706c656d656e7465724f776e61626c653a206e6577206f776e657220697320746865207a65726f20616464726573734552433732313a207472616e7366657220746f20746865207a65726f20616464726573734e6f7420656e6f756768204c494e4b202d2066696c6c20636f6e74726163742077697468206661756365744552433732313a206f70657261746f7220717565727920666f72206e6f6e6578697374656e7420746f6b656e4552433732313a20617070726f76652063616c6c6572206973206e6f74206f776e6572206e6f7220617070726f76656420666f7220616c6c4552433732313a2062616c616e636520717565727920666f7220746865207a65726f20616464726573734552433732313a206f776e657220717565727920666f72206e6f6e6578697374656e7420746f6b656e456e756d657261626c654d61703a20696e646578206f7574206f6620626f756e64734552433732313a20617070726f76656420717565727920666f72206e6f6e6578697374656e7420746f6b656e4552433732314d657461646174613a2055524920736574206f66206e6f6e6578697374656e7420746f6b656e4552433732313a207472616e73666572206f6620746f6b656e2074686174206973206e6f74206f776e4552433732314d657461646174613a2055524920717565727920666f72206e6f6e6578697374656e7420746f6b656e4552433732313a20617070726f76616c20746f2063757272656e74206f776e65724552433732313a207472616e736665722063616c6c6572206973206e6f74206f776e6572206e6f7220617070726f766564a26469706673582212209871b8388205397e9cad96393f904c6b76fb3fc97c432fcb451a5974a354c30064736f6c63430006060033",
  "immutableReferences": {},
  "source": "// contracts/DungeonsAndDragonsCharacter.sol\n// SPDX-License-Identifier: MIT\npragma solidity ^0.6.6;\n\nimport \"@openzeppelin/contracts/token/ERC721/ERC721.sol\";\nimport \"@chainlink/contracts/src/v0.6/VRFConsumerBase.sol\";\nimport \"@openzeppelin/contracts/access/Ownable.sol\";\nimport \"@openzeppelin/contracts/utils/Strings.sol\";\n\ncontract DungeonsAndDragonsCharacter is ERC721, VRFConsumerBase, Ownable {\n    using SafeMath for uint256;\n    using Strings for string;\n\n    bytes32 internal keyHash;\n    uint256 internal fee;\n    uint256 public randomResult;\n    address public VRFCoordinator;\n    // rinkeby: 0xb3dCcb4Cf7a26f6cf6B120Cf5A73875B7BBc655B\n    address public LinkToken;\n    // rinkeby: 0x01BE23585060835E02B77ef475b0Cc51aA1e0709a\n\n    struct Character {\n        uint256 strength;\n        uint256 dexterity;\n        uint256 constitution;\n        uint256 intelligence;\n        uint256 wisdom;\n        uint256 charisma;\n        uint256 experience;\n        string name;\n    }\n\n    Character[] public characters;\n\n    mapping(bytes32 => string) requestToCharacterName;\n    mapping(bytes32 => address) requestToSender;\n    mapping(bytes32 => uint256) requestToTokenId;\n\n    /**\n     * Constructor inherits VRFConsumerBase\n     *\n     * Network: Rinkeby\n     * Chainlink VRF Coordinator address: 0xb3dCcb4Cf7a26f6cf6B120Cf5A73875B7BBc655B\n     * LINK token address:                0xa36085f69e2889c224210f603d836748e7dc0088\n     * Key Hash: 0x2ed0feb3e7fd2022120aa84fab1945545a9f2ffc9076fd6156fa96eaff4c1311\n     */\n    constructor(address _VRFCoordinator, address _LinkToken, bytes32 _keyhash)\n        public\n        VRFConsumerBase(_VRFCoordinator, _LinkToken)\n        ERC721(\"DungeonsAndDragonsCharacter\", \"D&D\")\n    {   \n        VRFCoordinator = _VRFCoordinator;\n        LinkToken = _LinkToken;\n        keyHash = _keyhash;\n        fee = 0.1 * 10**18; // 0.1 LINK\n    }\n\n    function requestNewRandomCharacter(\n        uint256 userProvidedSeed,\n        string memory name\n    ) public returns (bytes32) {\n        require(\n            LINK.balanceOf(address(this)) >= fee,\n            \"Not enough LINK - fill contract with faucet\"\n        );\n        bytes32 requestId = requestRandomness(keyHash, fee, userProvidedSeed);\n        requestToCharacterName[requestId] = name;\n        requestToSender[requestId] = msg.sender;\n        return requestId;\n    }\n\n    function getTokenURI(uint256 tokenId) public view returns (string memory) {\n        return tokenURI(tokenId);\n    }\n\n    function setTokenURI(uint256 tokenId, string memory _tokenURI) public {\n        require(\n            _isApprovedOrOwner(_msgSender(), tokenId),\n            \"ERC721: transfer caller is not owner nor approved\"\n        );\n        _setTokenURI(tokenId, _tokenURI);\n    }\n\n    function fulfillRandomness(bytes32 requestId, uint256 randomNumber)\n        internal\n        override\n    {\n        uint256 newId = characters.length;\n        uint256 strength = ((randomNumber % 100) % 18);\n        uint256 dexterity = (((randomNumber % 10000) / 100) % 18);\n        uint256 constitution = (((randomNumber % 1000000) / 10000) % 18);\n        uint256 intelligence = (((randomNumber % 100000000) / 1000000) % 18);\n        uint256 wisdom = (((randomNumber % 10000000000) / 100000000) % 18);\n        uint256 charisma = (((randomNumber % 1000000000000) / 10000000000) %\n            18);\n        uint256 experience = 0;\n\n        characters.push(\n            Character(\n                strength,\n                dexterity,\n                constitution,\n                intelligence,\n                wisdom,\n                charisma,\n                experience,\n                requestToCharacterName[requestId]\n            )\n        );\n        _safeMint(requestToSender[requestId], newId);\n    }\n\n    function getLevel(uint256 tokenId) public view returns (uint256) {\n        return sqrt(characters[tokenId].experience);\n    }\n\n    function getCharacterOverView(uint256 tokenId)\n        public\n        view\n        returns (\n            string memory,\n            uint256,\n            uint256,\n            uint256\n        )\n    {\n        return (\n            characters[tokenId].name,\n            characters[tokenId].strength + characters[tokenId].dexterity + characters[tokenId].constitution + characters[tokenId].intelligence + characters[tokenId].wisdom + characters[tokenId].charisma,\n            getLevel(tokenId),\n            characters[tokenId].experience\n        );\n    }\n\n    function getCharacterStats(uint256 tokenId)\n        public\n        view\n        returns (\n            uint256,\n            uint256,\n            uint256,\n            uint256,\n            uint256,\n            uint256,\n            uint256\n        )\n    {\n        return (\n            characters[tokenId].strength,\n            characters[tokenId].dexterity,\n            characters[tokenId].constitution,\n            characters[tokenId].intelligence,\n            characters[tokenId].wisdom,\n            characters[tokenId].charisma,\n            characters[tokenId].experience\n        );\n    }\n\n    function sqrt(uint256 x) internal view returns (uint256 y) {\n        uint256 z = (x + 1) / 2;\n        y = x;\n        while (z < y) {\n            y = z;\n            z = (x / z + z) / 2;\n        }\n    }\n}\n",
  "sourcePath": "/Users/patrick/code/dungeons-and-dragons-nft/contracts/DungeonsAndDragonsCharacter.sol",
  "compiler": {
    "name": "solc",
    "version": "0.6.6+commit.6c089d02.Emscripten.clang"
  },
  "schemaVersion": "3.2.5",
  "updatedAt": "2020-11-25T02:10:33.927Z",
  "networkType": "ethereum",
  "devdoc": {
    "methods": {
      "approve(address,uint256)": {
        "details": "See {IERC721-approve}."
      },
      "balanceOf(address)": {
        "details": "See {IERC721-balanceOf}."
      },
      "baseURI()": {
        "details": "Returns the base URI set via {_setBaseURI}. This will be automatically added as a prefix in {tokenURI} to each token's URI, or to the token ID if no specific URI is set for that token ID."
      },
      "getApproved(uint256)": {
        "details": "See {IERC721-getApproved}."
      },
      "isApprovedForAll(address,address)": {
        "details": "See {IERC721-isApprovedForAll}."
      },
      "name()": {
        "details": "See {IERC721Metadata-name}."
      },
      "owner()": {
        "details": "Returns the address of the current owner."
      },
      "ownerOf(uint256)": {
        "details": "See {IERC721-ownerOf}."
      },
      "renounceOwnership()": {
        "details": "Leaves the contract without owner. It will not be possible to call `onlyOwner` functions anymore. Can only be called by the current owner.     * NOTE: Renouncing ownership will leave the contract without an owner, thereby removing any functionality that is only available to the owner."
      },
      "requestRandomness(bytes32,uint256,uint256)": {
        "details": "The source of the seed data must be something which the oraclecannot anticipate. See \"SECURITY CONSIDERATIONS\" above.The fulfillRandomness method receives the output, once it's providedby the Oracle, and verified by the vrfCoordinator.The _keyHash must already be registered with the VRFCoordinator, andthe _fee must exceed the fee specified during registration of the_keyHash.The returned requestId can be used to distinguish responses to *concurrent requests. It is passed as the first argument tofulfillRandomness.",
        "params": {
          "_fee": "The amount of LINK to send with the request",
          "_keyHash": "ID of public key against which randomness is generated",
          "_seed": "Random seed from which output randomness is determined"
        },
        "returns": {
          "requestId": "which will be returned with the response to this request"
        }
      },
      "safeTransferFrom(address,address,uint256)": {
        "details": "See {IERC721-safeTransferFrom}."
      },
      "safeTransferFrom(address,address,uint256,bytes)": {
        "details": "See {IERC721-safeTransferFrom}."
      },
      "setApprovalForAll(address,bool)": {
        "details": "See {IERC721-setApprovalForAll}."
      },
      "supportsInterface(bytes4)": {
        "details": "See {IERC165-supportsInterface}.     * Time complexity O(1), guaranteed to always use less than 30 000 gas."
      },
      "symbol()": {
        "details": "See {IERC721Metadata-symbol}."
      },
      "tokenByIndex(uint256)": {
        "details": "See {IERC721Enumerable-tokenByIndex}."
      },
      "tokenOfOwnerByIndex(address,uint256)": {
        "details": "See {IERC721Enumerable-tokenOfOwnerByIndex}."
      },
      "tokenURI(uint256)": {
        "details": "See {IERC721Metadata-tokenURI}."
      },
      "totalSupply()": {
        "details": "See {IERC721Enumerable-totalSupply}."
      },
      "transferFrom(address,address,uint256)": {
        "details": "See {IERC721-transferFrom}."
      },
      "transferOwnership(address)": {
        "details": "Transfers ownership of the contract to a new account (`newOwner`). Can only be called by the current owner."
      }
    }
  },
  "userdoc": {
    "methods": {
      "constructor": "Constructor inherits VRFConsumerBase     * Network: Rinkeby Chainlink VRF Coordinator address: 0xb3dCcb4Cf7a26f6cf6B120Cf5A73875B7BBc655B LINK token address:                0xa36085f69e2889c224210f603d836748e7dc0088 Key Hash: 0x2ed0feb3e7fd2022120aa84fab1945545a9f2ffc9076fd6156fa96eaff4c1311",
      "requestRandomness(bytes32,uint256,uint256)": {
        "notice": "requestRandomness initiates a request for VRF output given _seed"
      }
    }
  }
}